:1000000010C01DC01CC01BC01AC019C018C017C02A
:1000100016C015C014C013C012C011C010C01DC03E
:1000200039C011241FBECFEDCDBF20E0A0E6B0E067
:1000300001C01D92A438B207E1F7C7D0CBC0E0CF12
:10004000809381008AB380658ABBDC9ADE9AD69859
:1000500088EA8DB980EF8EB908951F920F920FB67E
:100060000F9211248F931092830010928200D698E1
:10007000CC9B02C0CE9BFCCFCE990AC088EF8DB935
:1000800080EF8EB98F910F900FBE0F901F90189533
:1000900088EAF5CF1F920F920FB60F9211242F937B
:1000A0003F938F939F93EF93FF9380918200909162
:1000B00083008230910509F467C080F4009709F14C
:1000C000019709F447C0FF91EF919F918F913F9164
:1000D0002F910F900FBE0F901F90189584309105AF
:1000E00009F45CC078F1059771F78FB190916000C9
:1000F0009F3F09F060C0813108F058C080936000D4
:1001000057C08FB1882349F08FB12091810090E0D2
:100110008E7F30E082179307C1F4789B07C081E09F
:1001200090E0909383008093820009C084E090E087
:1001300090938300809382008FEF809360001FB8BC
:10014000D69A2AC08FB1882329F088EA8DB980E732
:100150008EB9B9CF809160008F3F11F4109260008A
:10016000E0916000F0E0EF59FF4F80818FB98091FE
:1001700060008F5F8093600082E090E09093830046
:1001800080938200D69AE3CF83E090E0909383003F
:10019000809382001FB8D6988EE7DACF85E090E092
:1001A0009093830080938200D698D1CF1092600004
:1001B00084E090E0B6CFE0916000F0E0EF58FF4FB0
:1001C0008083809160008F5F99CF89E639DF80E07E
:0801D00090E00895F894FFCFC0
:00000001FF
