:1000000010C01DC01CC01BC01AC019C018C017C02A
:1000100016C015C014C013C012C011C010C01DC03E
:1000200039C011241FBECFEDCDBF21E0A0E6B0E066
:1000300001C01D92A435B207E1F7C7D0D3C0E0CF0D
:10004000809361008AB380658ABBDC9ADE9AD69879
:1000500088EA8DB980EF8EB908951F920F920FB67E
:100060000F9211248F931092630010926200D69821
:10007000CC9B02C0CE9BFCCFCE990AC088EF8DB935
:1000800080EF8EB98F910F900FBE0F901F90189533
:1000900088EAF5CF1F920F920FB60F9211242F937B
:1000A0003F938F939F93EF93FF9380916200909182
:1000B00063008230910509F467C080F4009709F16C
:1000C000019709F447C0FF91EF919F918F913F9164
:1000D0002F910F900FBE0F901F90189584309105AF
:1000E00009F45CC078F1059771F78FB190916000C9
:1000F0009F3F09F060C0893708F058C080936000C6
:1001000057C08FB1882349F08FB12091610090E0F2
:100110008E7F30E082179307C1F4789B07C081E09F
:1001200090E0909363008093620009C084E090E0C7
:1001300090936300809362008FEF809360001FB8FC
:10014000D69A2AC08FB1882329F088EA8DB980E732
:100150008EB9B9CF809160008F3F11F4109260008A
:10016000E0916000F0E0EC59FF4F80818FB9809101
:1001700060008F5F8093600082E090E09093630066
:1001800080936200D69AE3CF83E090E0909363007F
:10019000809362001FB8D6988EE7DACF85E090E0B2
:1001A0009093630080936200D698D1CF1092600044
:1001B00084E090E0B6CFE0916000F0E0E452FF4FC1
:1001C0008083809160008F5F99CF83E087BB88BB7D
:1001D00093E088B3892788BBEFEFFFE33197F1F70E
:0801E00000C0F7CFF894FFCF37
:00000001FF
